:020000040000FA
:02000000422993
:040002000034003492
:080008000528861B1020061BD1
:100010001C20861A2820061ADD208B150B100900DB
:100020000B1001302002031D192803111A30A00003
:1000300008000130A00208000B101A302002031D36
:10004000252803110130A00008000130A007080096
:10005000031101303402031D5928C8010311AF2DCB
:10006000A2010311013048020319080003110130F5
:10007000A102031D0800031100302102031D080026
:1000800086118030880006150611861557255B24D9
:100090002A24A824112593244624A1243F24622441
:1000A0003F248C24112511251125112511255728B0
:1000B00008000B100130B3070130330203199D28EB
:1000C000023033020319A128033033020319A52893
:1000D000043033020319A928053033020319AD286F
:1000E000063033020319B128073033020319B5284B
:1000F000083033020319B928093033020319BD2827
:100100000A3033020319C1280B3033020319C52802
:100110000C3033020319C9280D3033020319CD28DE
:100120000E3033020319D1280F3033020319D528BA
:10013000103033020319D928080003112008A30046
:100140009C2803112008A4009C2803112008A50066
:100150009C2803112008A6009C2803112008A70052
:100160009C2803112008A8009C2803112008A9003E
:100170009C2803112008AA009C2803112008AB002A
:100180009C2803112008AC009C2803112008AD0016
:100190009C2803112008AE009C2803112008AF0002
:1001A0009C2803112008B0009C2803112008B100EE
:1001B0009C2803112008B200DD280B100130B40088
:1001C00003138316E030960003138312E92803110A
:1001D00008008611C03088000615061186155725BF
:1001E0000311003023020319E728262500302402DA
:1001F0000319E7282625003025020319E7282625BC
:10020000003026020319E7282625003027020319AB
:10021000E7282625003028020319E7282625003084
:1002200029020319E728262500302A020319E728A6
:10023000262500302B020319E728262500302C0242
:100240000319E728262500302D020319E728262563
:1002500000302E020319E728262500302F0203194B
:10026000E7282625003030020319E728262500302C
:1002700031020319E7282625003032020319E72846
:100280002625E72803138316850187018801890144
:10029000F0308600F030960082308100031783161C
:1002A000890188010313831285018701880189016F
:1002B00086010730A100B301A301A401A501A60195
:1002C000A701A801A901AA01AB01AC01AD01AE01D2
:1002D000AF01B001B101B201B401B801B901BA0175
:1002E000BB01BC01BD01BE01BF01C001C101C20112
:1002F000C301C401C501C601C70138308800061515
:1003000006112D2506308800061506112D250F3003
:100310008800061506112D2586158B178B150B10D9
:100320000130A0000030A20057250B108B158B1751
:1003300022082002031D9E29031194292008A200EF
:10034000013020020319082A0230200203191D2A55
:10035000033020020319322A043020020319472AED
:100360000530200203195C2A063020020319712A85
:10037000073020020319862A0830200203199B2A1D
:10038000093020020319B02A0A3020020319C52AB5
:100390000B3020020319DA2A0C3020020319EF2A4D
:1003A0000D3020020319042B0E3020020319192BE3
:1003B0000F30200203192E2B103020020319432B7B
:1003C000113020020319582B1230200203196D2B13
:1003D000133020020319822B143020020319972BAB
:1003E000153020020319AC2B163020020319C12B43
:1003F000173020020319D62B183020020319EB2BDB
:10040000193020020319002C1A3020020319152C70
:100410004F258B1503113225112511251125112585
:10042000112511251F252A241825312438243F247D
:1004300046244D241125722594294F258B1503112F
:100440003225112511251125112511252A241F25B5
:100450003124182538243F2446244D2454241125C2
:10046000722594294F258B1503113225112511254D
:10047000112511252A2431241F25382418253F242D
:1004800046244D2454245B241125722594294F259C
:100490008B15031132251125112511252A2431240C
:1004A00038241F253F24182546244D2454245B243A
:1004B00062241125722594294F258B1503113225AD
:1004C000112511252A24312438243F241F254624B0
:1004D00018254D2454245B24622469241125722597
:1004E00094294F258B150311322511252A243124F7
:1004F00038243F2446241F254D24182554245B24EA
:100500006224692470241125722594294F258B15A6
:10051000031132251125312438243F2446244D244B
:100520001F25542418255B24622469247024772411
:100530001125722594294F258B150311322511257C
:1005400038243F2446244D2454241F255B24182599
:1005500062246924702477247E241125722594292D
:100560004F258B150311322511253F2446244D2498
:1005700054245B241F2562241825692470247724C1
:100580007E2485241125722594294F258B1503116E
:100590003225112546244D2454245B2462241F2532
:1005A00069241825702477247E2485248C24112521
:1005B000722594294F258B150311322511254D24C1
:1005C00054245B24622469241F2570241825772471
:1005D0007E2485248C2493241125722594294F256B
:1005E0008B1503113225112554245B2462246924C0
:1005F00070241F25772418257E2485248C24932499
:100600009A241125722594294F258B150311322523
:1006100011255B2462246924702477241F257E24FD
:10062000182585248C2493249A24A124112572252D
:1006300094294F258B150311322511256224692435
:10064000702477247E241F25852418258C24932448
:100650009A24A124A8241125722594294F258B15AD
:100660000311322511256924702477247E248524E2
:100670001F258C24182593249A24A124A824AF2470
:100680001125722594294F258B150311322511252B
:10069000702477247E2485248C241F2593241825F8
:1006A0009A24A124A824AF24B624112572259429C4
:1006B0004F258B1503113225112577247E2485249F
:1006C0008C2493241F259A241825A124A824AF2420
:1006D000B624BD241125722594294F258B150311AD
:1006E000322511257E2485248C2493249A241F25C9
:1006F000A1241825A824AF24B624BD24C424112580
:10070000722594294F258B15031132251125852437
:100710008C2493249A24A1241F25A8241825AF24CF
:10072000B624BD24C424CB241125722594294F2539
:100730008B150311322511258C2493249A24A1248E
:10074000A8241F25AF241825B624BD24C424CB24F7
:10075000D2241125722594294F258B15031132259A
:10076000112593249A24A124A824AF241F25B6245C
:100770001825BD24C424CB24D224D92411257225C4
:1007800094294F258B150311322511259A24A12474
:10079000A824AF24B6241F25BD241825C424CB24A7
:1007A000D224D92411251125722594294F258B1582
:1007B000031132251125A124A824AF24B624BD2479
:1007C0001F25C4241825CB24D224D9241125112572
:1007D0001125722594294F258B15031132251125DA
:1007E000A824AF24B624BD24C4241F25CB24182557
:1007F000D224D924112511251125112572259429DA
:100800004F258B15031132251125AF24B624BD24A5
:10081000C424CB241F25D2241825D9241125112521
:10082000112511251125722594294F258B150311AA
:1008300032251125B624BD24C424CB24D2241F255F
:10084000D92418251125112511251125112511252A
:1008500072259429861541308800061506112D252C
:100860000800861542308800061506112D2508005F
:10087000861543308800061506112D2508008615BB
:1008800044308800061506112D25080086154530D0
:100890008800061506112D250800861546308800AB
:1008A000061506112D250800861547308800061507
:1008B00006112D25080086154830880006150611FA
:1008C0002D250800861549308800061506112D25AE
:1008D000080086154A308800061506112D250800E7
:1008E00086154B308800061506112D250800861543
:1008F0004C308800061506112D25080086154D3050
:100900008800061506112D25080086154E30880032
:10091000061506112D25080086154F30880006158E
:1009200006112D2508008615503088000615061181
:100930002D250800861551308800061506112D2535
:100940000800861552308800061506112D2508006E
:10095000861553308800061506112D2508008615CA
:1009600054308800061506112D25080086155530CF
:100970008800061506112D250800861556308800BA
:10098000061506112D250800861557308800061516
:1009900006112D2508008615583088000615061109
:1009A0002D250800861559308800061506112D25BD
:1009B000080086155A308800061506112D250800F6
:1009C000861531308800061506112D25080086157C
:1009D00032308800061506112D25080086153330A3
:1009E0008800061506112D2508008615343088006C
:1009F000061506112D2508008615353088000615C8
:100A000006112D25080086153630880006150611BA
:100A10002D250800861537308800061506112D256E
:100A20000800861520308800061506112D250800BF
:100A300086157F308800061506112D2508008615BD
:100A40007E308800061506112D25080086155F30BA
:100A50008800061506112D250800672567256725DE
:100A600067250800013021020319E02C0230210221
:100A70000319E72C033021020319EE2C0430210264
:100A80000319F52C053021020319FC2C0630210234
:100A90000319032D0730210203190A2D08008611BE
:100AA00080308800061506118615572508000B11A1
:100AB00003138316823081000313831233308100C5
:100AC0000B110B1D612D0B1133308100080000004C
:100AD0000000000000000000000000000000000016
:100AE0000000080000303402031977250800861141
:100AF000C030880006150611861557252308B50055
:100B00001F272408B5001F272508B5001F27260822
:100B1000B5001F272708B5001F272808B5001F2785
:100B20002908B5001F272A08B5001F272B08B50084
:100B30001F272C08B5001F272D08B5001F272E08DA
:100B4000B5001F272F08B5001F273008B5001F2745
:100B50003108B5001F273208B5001F270800031110
:100B600000303802031DC52D8611C03088000615DF
:100B70000611861557252308B600112703110030EA
:100B800037020319C52D0130B800031100303902B6
:100B9000031DDB2D8611C130880006150611861550
:100BA00057252408B6001127031100303702031916
:100BB000DB2D0130B800031100303A02031DF12D86
:100BC0008611C2308800061506118615572525089E
:100BD000B60011270311003037020319F12D01303F
:100BE000B800031100303B02031D072E8611C330ED
:100BF000880006150611861557252608B600112708
:100C00000311003037020319072E0130B800031119
:100C100000303C02031D1D2E8611C43088000615CD
:100C20000611861557252708B60011270311003035
:100C3000370203191D2E0130B800031100303D02A8
:100C4000031D332E8611C530880006150611861542
:100C500057252808B6001127031100303702031961
:100C6000332E0130B800031100303E02031D492E1F
:100C70008611C630880006150611861557252908E5
:100C8000B60011270311003037020319492E013035
:100C9000B800031100303F02031D5F2E8611C730DC
:100CA000880006150611861557252A08B600112753
:100CB00003110030370203195F2E0130B800031111
:100CC00000304002031D752E8611C83088000615BD
:100CD0000611861557252B08B60011270311003081
:100CE00037020319752E0130B8000311003041029C
:100CF000031D8B2E8611C930880006150611861536
:100D000057252C08B60011270311003037020319AC
:100D10008B2E0130B800031100304202031DA12EBA
:100D20008611CA30880006150611861557252D082C
:100D3000B60011270311003037020319A12E01302C
:100D4000B800031100304302031DB72E8611CB30CB
:100D5000880006150611861557252E08B60011279E
:100D60000311003037020319B72E0130B800031108
:100D700000304402031DCD2E8611CC3088000615AC
:100D80000611861557252F08B600112703110030CC
:100D900037020319CD2E0130B8000311003045028F
:100DA000031DE32E8611CD30880006150611861529
:100DB00057253008B60011270311003037020319F8
:100DC000E32E0130B800031100304602031DF92E56
:100DD0008611CE3088000615061186155725310874
:100DE000B60011270311003037020319F92E013024
:100DF000B800031100304702031D0F2F8611CF30BA
:100E0000880006150611861557253208B6001127E9
:100E100003110030370203190F2F0130B8000311FE
:100E20003028031136082002031D1E2F172F03112F
:100E30000130B700C8003608B5001F2708000311AD
:100E40000030350203191125031101303502031951
:100E50002A2403110230350203193124031103300F
:100E600035020319382403110430350203193F24D5
:100E700003110530350203194624031106303502EB
:100E800003194D24031107303502031954240311AB
:100E90000830350203195B240311093035020319A8
:100EA000622403110A3035020319692403110B303F
:100EB00035020319702403110C303502031977240D
:100EC00003110D30350203197E2403110E30350253
:100ED0000319852403110F30350203198C240311E3
:100EE0001030350203199324031111303502031910
:100EF0009A240311123035020319A124031113306F
:100F000035020319A8240311143035020319AF2444
:100F10000311153035020319B624031116303502BA
:100F20000319BD240311173035020319C42403111A
:100F3000183035020319CB24031119303502031977
:100F4000D22403111A3035020319D92403110800E1
:02400E00E423A9
:02401000FF3F70
:00000001FF
